{
  "contractName": "BananaToken",
  "abi": [
    {
      "anonymous": false,
      "inputs": [
        {
          "indexed": false,
          "internalType": "address",
          "name": "_account",
          "type": "address"
        },
        {
          "indexed": false,
          "internalType": "address",
          "name": "_operator",
          "type": "address"
        }
      ],
      "name": "approve",
      "type": "event"
    },
    {
      "anonymous": false,
      "inputs": [
        {
          "indexed": false,
          "internalType": "address",
          "name": "_account",
          "type": "address"
        },
        {
          "indexed": false,
          "internalType": "uint256",
          "name": "_amount",
          "type": "uint256"
        },
        {
          "indexed": false,
          "internalType": "uint256",
          "name": "_id",
          "type": "uint256"
        }
      ],
      "name": "exchange",
      "type": "event"
    },
    {
      "anonymous": false,
      "inputs": [
        {
          "indexed": false,
          "internalType": "address",
          "name": "_from",
          "type": "address"
        },
        {
          "indexed": false,
          "internalType": "address",
          "name": "_to",
          "type": "address"
        },
        {
          "indexed": false,
          "internalType": "uint256",
          "name": "_amount",
          "type": "uint256"
        },
        {
          "indexed": false,
          "internalType": "uint256",
          "name": "_id",
          "type": "uint256"
        }
      ],
      "name": "transfer",
      "type": "event"
    },
    {
      "inputs": [],
      "name": "DIAMOND",
      "outputs": [
        {
          "internalType": "uint256",
          "name": "",
          "type": "uint256"
        }
      ],
      "stateMutability": "view",
      "type": "function",
      "constant": true
    },
    {
      "inputs": [],
      "name": "GOLD",
      "outputs": [
        {
          "internalType": "uint256",
          "name": "",
          "type": "uint256"
        }
      ],
      "stateMutability": "view",
      "type": "function",
      "constant": true
    },
    {
      "inputs": [],
      "name": "IRON",
      "outputs": [
        {
          "internalType": "uint256",
          "name": "",
          "type": "uint256"
        }
      ],
      "stateMutability": "view",
      "type": "function",
      "constant": true
    },
    {
      "inputs": [],
      "name": "SILVER",
      "outputs": [
        {
          "internalType": "uint256",
          "name": "",
          "type": "uint256"
        }
      ],
      "stateMutability": "view",
      "type": "function",
      "constant": true
    },
    {
      "inputs": [
        {
          "internalType": "address",
          "name": "_account",
          "type": "address"
        },
        {
          "internalType": "uint256",
          "name": "_amount",
          "type": "uint256"
        },
        {
          "internalType": "uint256",
          "name": "_id",
          "type": "uint256"
        }
      ],
      "name": "addToken",
      "outputs": [],
      "stateMutability": "nonpayable",
      "type": "function"
    },
    {
      "inputs": [
        {
          "internalType": "address",
          "name": "_account",
          "type": "address"
        },
        {
          "internalType": "uint256[]",
          "name": "_ids",
          "type": "uint256[]"
        },
        {
          "internalType": "uint256[]",
          "name": "_amounts",
          "type": "uint256[]"
        },
        {
          "internalType": "bytes",
          "name": "data",
          "type": "bytes"
        }
      ],
      "name": "awardStage",
      "outputs": [],
      "stateMutability": "nonpayable",
      "type": "function"
    },
    {
      "inputs": [
        {
          "internalType": "address",
          "name": "_account",
          "type": "address"
        },
        {
          "internalType": "uint256",
          "name": "_amount",
          "type": "uint256"
        },
        {
          "internalType": "uint256",
          "name": "_id",
          "type": "uint256"
        }
      ],
      "name": "burn",
      "outputs": [],
      "stateMutability": "nonpayable",
      "type": "function"
    },
    {
      "inputs": [
        {
          "internalType": "address",
          "name": "_account",
          "type": "address"
        },
        {
          "internalType": "uint256[]",
          "name": "_ids",
          "type": "uint256[]"
        },
        {
          "internalType": "uint256[]",
          "name": "_amounts",
          "type": "uint256[]"
        }
      ],
      "name": "burnBatch",
      "outputs": [],
      "stateMutability": "nonpayable",
      "type": "function"
    },
    {
      "inputs": [
        {
          "internalType": "address",
          "name": "_account",
          "type": "address"
        },
        {
          "internalType": "uint256",
          "name": "_num",
          "type": "uint256"
        },
        {
          "internalType": "uint256[]",
          "name": "_amount",
          "type": "uint256[]"
        },
        {
          "internalType": "uint256[]",
          "name": "_rates",
          "type": "uint256[]"
        }
      ],
      "name": "reward",
      "outputs": [
        {
          "internalType": "string",
          "name": "",
          "type": "string"
        }
      ],
      "stateMutability": "nonpayable",
      "type": "function"
    },
    {
      "inputs": [
        {
          "internalType": "address",
          "name": "_account",
          "type": "address"
        },
        {
          "internalType": "uint256",
          "name": "_time",
          "type": "uint256"
        }
      ],
      "name": "upStage",
      "outputs": [
        {
          "internalType": "uint256",
          "name": "",
          "type": "uint256"
        }
      ],
      "stateMutability": "nonpayable",
      "type": "function"
    },
    {
      "inputs": [
        {
          "internalType": "uint256",
          "name": "_stage",
          "type": "uint256"
        }
      ],
      "name": "getReward",
      "outputs": [
        {
          "internalType": "uint256[]",
          "name": "",
          "type": "uint256[]"
        },
        {
          "internalType": "uint256[]",
          "name": "",
          "type": "uint256[]"
        }
      ],
      "stateMutability": "view",
      "type": "function",
      "constant": true
    },
    {
      "inputs": [
        {
          "internalType": "uint256",
          "name": "_num",
          "type": "uint256"
        },
        {
          "internalType": "uint256",
          "name": "_time",
          "type": "uint256"
        }
      ],
      "name": "rewardBasedOnStage",
      "outputs": [
        {
          "internalType": "string",
          "name": "",
          "type": "string"
        }
      ],
      "stateMutability": "nonpayable",
      "type": "function"
    },
    {
      "inputs": [
        {
          "internalType": "address",
          "name": "_user",
          "type": "address"
        },
        {
          "internalType": "uint256",
          "name": "_id",
          "type": "uint256"
        }
      ],
      "name": "balanceOf",
      "outputs": [
        {
          "internalType": "uint256",
          "name": "",
          "type": "uint256"
        }
      ],
      "stateMutability": "view",
      "type": "function",
      "constant": true
    }
  ],
  "bytecode": "0x608060405234801561001057600080fd5b50611f88806100206000396000f3fe608060405234801561001057600080fd5b50600436106100ce5760003560e01c80636b20c4541161008c578063d3a226ac11610066578063d3a226ac14610226578063dee1f2af14610256578063e3e55f0814610272578063f5298aca14610290576100ce565b80636b20c454146101be57806396a46671146101da578063a9d44a11146101f6576100ce565b8062fdd58e146100d35780631c4b774b146101035780631fd81bcd14610134578063206545c2146101525780633e4bee38146101705780634048c97c1461018e575b600080fd5b6100ed60048036038101906100e891906112b9565b6102ac565b6040516100fa9190611308565b60405180910390f35b61011d60048036038101906101189190611323565b610307565b60405161012b92919061140e565b60405180910390f35b61013c610787565b6040516101499190611308565b60405180910390f35b61015a61078c565b6040516101679190611308565b60405180910390f35b610178610791565b6040516101859190611308565b60405180910390f35b6101a860048036038101906101a3919061159e565b610796565b6040516101b591906116bc565b60405180910390f35b6101d860048036038101906101d39190611739565b610b65565b005b6101f460048036038101906101ef9190611883565b610cf2565b005b610210600480360381019061020b91906112b9565b610dc9565b60405161021d9190611308565b60405180910390f35b610240600480360381019061023b9190611946565b610e8b565b60405161024d91906116bc565b60405180910390f35b610270600480360381019061026b9190611986565b610ecc565b005b61027a610f1a565b6040516102879190611308565b60405180910390f35b6102aa60048036038101906102a59190611986565b610f1f565b005b6000600160008473ffffffffffffffffffffffffffffffffffffffff1673ffffffffffffffffffffffffffffffffffffffff168152602001908152602001600020600083815260200190815260200160002054905092915050565b606080606080600085036104285760008260008151811061032b5761032a6119d9565b5b60200260200101818152505060018260018151811061034d5761034c6119d9565b5b60200260200101818152505060028260028151811061036f5761036e6119d9565b5b602002602001018181525050600582600381518110610391576103906119d9565b5b6020026020010181815250506000816000815181106103b3576103b26119d9565b5b602002602001018181525050600a816001815181106103d5576103d46119d9565b5b6020026020010181815250506101ea816002815181106103f8576103f76119d9565b5b6020026020010181815250506101f48160038151811061041b5761041a6119d9565b5b6020026020010181815250505b6001850361054357600182600081518110610446576104456119d9565b5b602002602001018181525050600a82600181518110610468576104676119d9565b5b60200260200101818152505060148260028151811061048a576104896119d9565b5b6020026020010181815250506032826003815181106104ac576104ab6119d9565b5b6020026020010181815250506005816000815181106104ce576104cd6119d9565b5b6020026020010181815250506091816001815181106104f0576104ef6119d9565b5b6020026020010181815250506101c281600281518110610513576105126119d9565b5b60200260200101818152505061019081600381518110610536576105356119d9565b5b6020026020010181815250505b6002850361065e57600182600081518110610561576105606119d9565b5b602002602001018181525050601482600181518110610583576105826119d9565b5b6020026020010181815250506064826002815181106105a5576105a46119d9565b5b60200260200101818152505060c8826003815181106105c7576105c66119d9565b5b602002602001018181525050600a816000815181106105e9576105e86119d9565b5b60200260200101818152505060be8160018151811061060b5761060a6119d9565b5b6020026020010181815250506101908160028151811061062e5761062d6119d9565b5b60200260200101818152505061019081600381518110610651576106506119d9565b5b6020026020010181815250505b600285111561077a5760018260008151811061067d5761067c6119d9565b5b60200260200101818152505060328260018151811061069f5761069e6119d9565b5b60200260200101818152505060c8826002815181106106c1576106c06119d9565b5b6020026020010181815250506064826003815181106106e3576106e26119d9565b5b602002602001018181525050603281600081518110610705576107046119d9565b5b60200260200101818152505060fa81600181518110610727576107266119d9565b5b60200260200101818152505061015e8160028151811061074a576107496119d9565b5b60200260200101818152505061015e8160038151811061076d5761076c6119d9565b5b6020026020010181815250505b8181935093505050915091565b600081565b600381565b600281565b606080826000815181106107ad576107ac6119d9565b5b6020026020010151851161081f576107e286856000815181106107d3576107d26119d9565b5b60200260200101516003610ecc565b6040518060400160405280601181526020017f596f7520676f742061206469616d6f6e640000000000000000000000000000008152509050610b59565b82600081518110610833576108326119d9565b5b60200260200101518511801561088a575082600081518110610858576108576119d9565b5b602002602001015183600181518110610874576108736119d9565b5b60200260200101516108869190611a37565b8511155b15610900576108b686856001815181106108a7576108a66119d9565b5b60200260200101516002610ecc565b6108da846001815181106108cd576108cc6119d9565b5b6020026020010151610fdc565b6040516020016108ea9190611b3f565b6040516020818303038152906040529050610b58565b82600181518110610914576109136119d9565b5b6020026020010151836000815181106109305761092f6119d9565b5b60200260200101516109429190611a37565b851180156109b757508260028151811061095f5761095e6119d9565b5b60200260200101518360018151811061097b5761097a6119d9565b5b602002602001015184600081518110610997576109966119d9565b5b60200260200101516109a99190611a37565b6109b39190611a37565b8511155b15610a2d576109e386856002815181106109d4576109d36119d9565b5b60200260200101516001610ecc565b610a07846002815181106109fa576109f96119d9565b5b6020026020010151610fdc565b604051602001610a179190611bb8565b6040516020818303038152906040529050610b57565b82600281518110610a4157610a406119d9565b5b602002602001015183600181518110610a5d57610a5c6119d9565b5b602002602001015184600081518110610a7957610a786119d9565b5b6020026020010151610a8b9190611a37565b610a959190611a37565b85118015610aa557506103e88511155b15610b1b57610ad18685600381518110610ac257610ac16119d9565b5b60200260200101516000610ecc565b610af584600381518110610ae857610ae76119d9565b5b6020026020010151610fdc565b604051602001610b059190611c31565b6040516020818303038152906040529050610b56565b6040517f08c379a0000000000000000000000000000000000000000000000000000000008152600401610b4d90611caa565b60405180910390fd5b5b5b5b80915050949350505050565b600073ffffffffffffffffffffffffffffffffffffffff168573ffffffffffffffffffffffffffffffffffffffff1603610bd4576040517f08c379a0000000000000000000000000000000000000000000000000000000008152600401610bcb90611d16565b60405180910390fd5b818190508484905014610c1c576040517f08c379a0000000000000000000000000000000000000000000000000000000008152600401610c1390611da8565b60405180910390fd5b60005b84849050811015610cea57610c6786868684818110610c4157610c406119d9565b5b90506020020135858585818110610c5b57610c5a6119d9565b5b90506020020135611139565b7f0411b252f8a717c70f59fd8b39295b0e9439e93c1e4c2ad2c2a76382bd90c1b1866000858585818110610c9e57610c9d6119d9565b5b90506020020135888886818110610cb857610cb76119d9565b5b90506020020135604051610ccf9493929190611dd7565b60405180910390a18080610ce290611e1c565b915050610c1f565b505050505050565b60005b85859050811015610dc057610d3d87878784818110610d1757610d166119d9565b5b90506020020135868685818110610d3157610d306119d9565b5b905060200201356111a5565b7f0411b252f8a717c70f59fd8b39295b0e9439e93c1e4c2ad2c2a76382bd90c1b1600088868685818110610d7457610d736119d9565b5b90506020020135898986818110610d8e57610d8d6119d9565b5b90506020020135604051610da59493929190611dd7565b60405180910390a18080610db890611e1c565b915050610cf5565b50505050505050565b600060016103e883610ddb9190611e93565b148015610de85750600082115b15610e445760016000808573ffffffffffffffffffffffffffffffffffffffff1673ffffffffffffffffffffffffffffffffffffffff1681526020019081526020016000206000828254610e3c9190611a37565b925050819055505b6000808473ffffffffffffffffffffffffffffffffffffffff1673ffffffffffffffffffffffffffffffffffffffff16815260200190815260200160002054905092915050565b60608060606000610e9c3386610dc9565b9050610ea781610307565b80935081945050506000610ebd33888686610796565b90508094505050505092915050565b610ed78382846111a5565b7f0411b252f8a717c70f59fd8b39295b0e9439e93c1e4c2ad2c2a76382bd90c1b16000848484604051610f0d9493929190611dd7565b60405180910390a1505050565b600181565b600073ffffffffffffffffffffffffffffffffffffffff168373ffffffffffffffffffffffffffffffffffffffff1603610f8e576040517f08c379a0000000000000000000000000000000000000000000000000000000008152600401610f8590611d16565b60405180910390fd5b610f99838284611139565b7f0411b252f8a717c70f59fd8b39295b0e9439e93c1e4c2ad2c2a76382bd90c1b18360008484604051610fcf9493929190611dd7565b60405180910390a1505050565b606060008203611023576040518060400160405280600181526020017f30000000000000000000000000000000000000000000000000000000000000008152509050611134565b600082905060005b6000821461105557808061103e90611e1c565b915050600a8261104e9190611ec4565b915061102b565b60008167ffffffffffffffff8111156110715761107061145b565b5b6040519080825280601f01601f1916602001820160405280156110a35781602001600182028036833780820191505090505b5090505b6000851461112d57600a856110bc9190611e93565b60306110c89190611a37565b60f81b81836110d690611ef5565b935083815181106110ea576110e96119d9565b5b60200101907effffffffffffffffffffffffffffffffffffffffffffffffffffffffffffff1916908160001a905350600a856111269190611ec4565b94506110a7565b8093505050505b919050565b80600160008573ffffffffffffffffffffffffffffffffffffffff1673ffffffffffffffffffffffffffffffffffffffff168152602001908152602001600020600084815260200190815260200160002060008282546111999190611f1e565b92505081905550505050565b80600160008573ffffffffffffffffffffffffffffffffffffffff1673ffffffffffffffffffffffffffffffffffffffff168152602001908152602001600020600084815260200190815260200160002060008282546112059190611a37565b92505081905550505050565b6000604051905090565b600080fd5b600080fd5b600073ffffffffffffffffffffffffffffffffffffffff82169050919050565b600061125082611225565b9050919050565b61126081611245565b811461126b57600080fd5b50565b60008135905061127d81611257565b92915050565b6000819050919050565b61129681611283565b81146112a157600080fd5b50565b6000813590506112b38161128d565b92915050565b600080604083850312156112d0576112cf61121b565b5b60006112de8582860161126e565b92505060206112ef858286016112a4565b9150509250929050565b61130281611283565b82525050565b600060208201905061131d60008301846112f9565b92915050565b6000602082840312156113395761133861121b565b5b6000611347848285016112a4565b91505092915050565b600081519050919050565b600082825260208201905092915050565b6000819050602082019050919050565b61138581611283565b82525050565b6000611397838361137c565b60208301905092915050565b6000602082019050919050565b60006113bb82611350565b6113c5818561135b565b93506113d08361136c565b8060005b838110156114015781516113e8888261138b565b97506113f3836113a3565b9250506001810190506113d4565b5085935050505092915050565b6000604082019050818103600083015261142881856113b0565b9050818103602083015261143c81846113b0565b90509392505050565b600080fd5b6000601f19601f8301169050919050565b7f4e487b7100000000000000000000000000000000000000000000000000000000600052604160045260246000fd5b6114938261144a565b810181811067ffffffffffffffff821117156114b2576114b161145b565b5b80604052505050565b60006114c5611211565b90506114d1828261148a565b919050565b600067ffffffffffffffff8211156114f1576114f061145b565b5b602082029050602081019050919050565b600080fd5b600061151a611515846114d6565b6114bb565b9050808382526020820190506020840283018581111561153d5761153c611502565b5b835b81811015611566578061155288826112a4565b84526020840193505060208101905061153f565b5050509392505050565b600082601f83011261158557611584611445565b5b8135611595848260208601611507565b91505092915050565b600080600080608085870312156115b8576115b761121b565b5b60006115c68782880161126e565b94505060206115d7878288016112a4565b935050604085013567ffffffffffffffff8111156115f8576115f7611220565b5b61160487828801611570565b925050606085013567ffffffffffffffff81111561162557611624611220565b5b61163187828801611570565b91505092959194509250565b600081519050919050565b600082825260208201905092915050565b60005b8381101561167757808201518184015260208101905061165c565b60008484015250505050565b600061168e8261163d565b6116988185611648565b93506116a8818560208601611659565b6116b18161144a565b840191505092915050565b600060208201905081810360008301526116d68184611683565b905092915050565b600080fd5b60008083601f8401126116f9576116f8611445565b5b8235905067ffffffffffffffff811115611716576117156116de565b5b60208301915083602082028301111561173257611731611502565b5b9250929050565b6000806000806000606086880312156117555761175461121b565b5b60006117638882890161126e565b955050602086013567ffffffffffffffff81111561178457611783611220565b5b611790888289016116e3565b9450945050604086013567ffffffffffffffff8111156117b3576117b2611220565b5b6117bf888289016116e3565b92509250509295509295909350565b600080fd5b600067ffffffffffffffff8211156117ee576117ed61145b565b5b6117f78261144a565b9050602081019050919050565b82818337600083830152505050565b6000611826611821846117d3565b6114bb565b905082815260208101848484011115611842576118416117ce565b5b61184d848285611804565b509392505050565b600082601f83011261186a57611869611445565b5b813561187a848260208601611813565b91505092915050565b600080600080600080608087890312156118a05761189f61121b565b5b60006118ae89828a0161126e565b965050602087013567ffffffffffffffff8111156118cf576118ce611220565b5b6118db89828a016116e3565b9550955050604087013567ffffffffffffffff8111156118fe576118fd611220565b5b61190a89828a016116e3565b9350935050606087013567ffffffffffffffff81111561192d5761192c611220565b5b61193989828a01611855565b9150509295509295509295565b6000806040838503121561195d5761195c61121b565b5b600061196b858286016112a4565b925050602061197c858286016112a4565b9150509250929050565b60008060006060848603121561199f5761199e61121b565b5b60006119ad8682870161126e565b93505060206119be868287016112a4565b92505060406119cf868287016112a4565b9150509250925092565b7f4e487b7100000000000000000000000000000000000000000000000000000000600052603260045260246000fd5b7f4e487b7100000000000000000000000000000000000000000000000000000000600052601160045260246000fd5b6000611a4282611283565b9150611a4d83611283565b9250828201905080821115611a6557611a64611a08565b5b92915050565b600081905092915050565b7f596f7520676f7420000000000000000000000000000000000000000000000000600082015250565b6000611aac600883611a6b565b9150611ab782611a76565b600882019050919050565b6000611acd8261163d565b611ad78185611a6b565b9350611ae7818560208601611659565b80840191505092915050565b7f20676f6c64000000000000000000000000000000000000000000000000000000600082015250565b6000611b29600583611a6b565b9150611b3482611af3565b600582019050919050565b6000611b4a82611a9f565b9150611b568284611ac2565b9150611b6182611b1c565b915081905092915050565b7f2073696c76657200000000000000000000000000000000000000000000000000600082015250565b6000611ba2600783611a6b565b9150611bad82611b6c565b600782019050919050565b6000611bc382611a9f565b9150611bcf8284611ac2565b9150611bda82611b95565b915081905092915050565b7f2069726f6e000000000000000000000000000000000000000000000000000000600082015250565b6000611c1b600583611a6b565b9150611c2682611be5565b600582019050919050565b6000611c3c82611a9f565b9150611c488284611ac2565b9150611c5382611c0e565b915081905092915050565b7f496e76616c6964206e756d626572000000000000000000000000000000000000600082015250565b6000611c94600e83611648565b9150611c9f82611c5e565b602082019050919050565b60006020820190508181036000830152611cc381611c87565b9050919050565b7f63616e6e6f7420626520746865207a65726f2061646472657373000000000000600082015250565b6000611d00601a83611648565b9150611d0b82611cca565b602082019050919050565b60006020820190508181036000830152611d2f81611cf3565b9050919050565b7f69647320616e6420616d6f756e7473206d75737420686176652074686520736160008201527f6d65206c656e6774680000000000000000000000000000000000000000000000602082015250565b6000611d92602983611648565b9150611d9d82611d36565b604082019050919050565b60006020820190508181036000830152611dc181611d85565b9050919050565b611dd181611245565b82525050565b6000608082019050611dec6000830187611dc8565b611df96020830186611dc8565b611e0660408301856112f9565b611e1360608301846112f9565b95945050505050565b6000611e2782611283565b91507fffffffffffffffffffffffffffffffffffffffffffffffffffffffffffffffff8203611e5957611e58611a08565b5b600182019050919050565b7f4e487b7100000000000000000000000000000000000000000000000000000000600052601260045260246000fd5b6000611e9e82611283565b9150611ea983611283565b925082611eb957611eb8611e64565b5b828206905092915050565b6000611ecf82611283565b9150611eda83611283565b925082611eea57611ee9611e64565b5b828204905092915050565b6000611f0082611283565b915060008203611f1357611f12611a08565b5b600182039050919050565b6000611f2982611283565b9150611f3483611283565b9250828203905081811115611f4c57611f4b611a08565b5b9291505056fea264697066735822122086595cf1c17d5eb44a6b555ff41226d501b633e7c3c3556448b6c084d81e002564736f6c63430008110033",
  "immutableReferences": {},
  "source": "// SPDX-License-Identifier: MIT\r\npragma solidity ^0.8.0;\r\n// import \"./Itoken.sol\";\r\n// import \"@openzeppelin/contracts/token/ERC1155/ERC1155.sol\";\r\n// import \"@openzeppelin/contracts/access/Ownable.sol\";\r\ncontract BananaToken {\r\n\r\n    event transfer(address _from,address _to,uint256 _amount, uint _id);\r\n    event exchange(address _account, uint256 _amount, uint _id);\r\n    event approve(address _account, address _operator);\r\n\r\n    uint256 public constant IRON =0;\r\n    uint256 public constant SILVER =1;\r\n    uint256 public constant GOLD =2;\r\n    uint256 public constant DIAMOND =3;\r\n\r\n    mapping (address => uint) stage;\r\n    mapping(address => mapping(uint => uint256)) balance;\r\n    // constructor() ERC1155(\"https://placeholder.com/{id}.json\"){\r\n    //     _mint(address(0),IRON,100000,\"\");\r\n    //     _mint(address(0),SILVER,50000,\"\");\r\n    //     _mint(address(0),GOLD,10000,\"\"); // cryptocurrency\r\n    //     _mint(address(0),DIAMOND,5,\"\"); // unique token\r\n        \r\n    // } \r\n\r\n    function addToken(address _account,uint256 _amount, uint _id)public  {\r\n        _mint(_account,_id,_amount);\r\n        emit transfer(address(0),_account,_amount,_id);\r\n    }\r\n    function awardStage(address _account,uint256[] calldata _ids, uint256[] calldata _amounts, bytes memory data) external {\r\n             for(uint256 i=0; i <_ids.length; i++){\r\n            _mint(_account,_ids[i], _amounts[i]);\r\n            emit transfer(address(0),_account,_amounts[i],_ids[i]);\r\n        }\r\n    }\r\n    function burn (address _account,uint256 _amount, uint _id) external {\r\n        require(_account !=address(0),\"cannot be the zero address\");\r\n        _burn(_account,_id,_amount);\r\n        emit transfer(_account,address(0),_amount,_id);\r\n    }\r\n    function burnBatch(address _account,uint256[] calldata _ids, uint256[] calldata _amounts) external {\r\n        require(_account !=address(0),\"cannot be the zero address\");\r\n        require(_ids.length == _amounts.length,\"ids and amounts must have the same length\");\r\n        // _berforTokenTransfer(msg.sender,);\r\n        for(uint256 i=0; i <_ids.length; i++){\r\n            _burn(_account,_ids[i],_amounts[i]);\r\n            emit transfer(_account,address(0),_amounts[i],_ids[i]);\r\n        }\r\n    }\r\n    \r\n    function reward(address _account,uint256 _num,uint256[] memory _amount,uint256[] memory _rates) public returns(string memory){\r\n        string memory announce;\r\n        // Diamond reward condition\r\n        if (_num <= _rates[0]) {\r\n            addToken(_account, _amount[0], DIAMOND);\r\n            announce = \"You got a diamond\";\r\n        } \r\n        // Gold reward condition\r\n        else if (_num > _rates[0] && _num <= (_rates[1] + _rates[0])) {\r\n            addToken(_account, _amount[1], GOLD);\r\n            announce = string(abi.encodePacked(\"You got \", uint2str(_amount[1]), \" gold\"));\r\n        } \r\n        // Silver reward condition\r\n        else if (_num > (_rates[0] + _rates[1]) && _num <= (_rates[0] + _rates[1] + _rates[2])) {\r\n            addToken(_account, _amount[2], SILVER);\r\n            announce = string(abi.encodePacked(\"You got \", uint2str(_amount[2]), \" silver\"));\r\n        } \r\n        // Iron reward condition\r\n        else if (_num > (_rates[0] + _rates[1] + _rates[2]) && _num <= 1000) {\r\n            addToken(_account, _amount[3], IRON);\r\n            announce = string(abi.encodePacked(\"You got \", uint2str(_amount[3]), \" iron\"));\r\n        } \r\n        // Fallback for invalid _num\r\n        else {\r\n            revert(\"Invalid number\");\r\n        }\r\n        return announce;\r\n    }\r\n\r\n    function upStage(address _account,uint256 _time) public returns(uint256) {\r\n        if(_time % 1000==1 && _time>0){\r\n            stage[_account] +=1;\r\n        }\r\n        return stage[_account];\r\n    }\r\n    // function checkUpStage(address _account) external view returns(bool){\r\n    //     return stage[_account];\r\n    // }\r\n    function getReward(uint256 _stage) public view returns(uint256[] memory,uint256[] memory)  {\r\n        uint256[] memory amounts;\r\n        uint256[] memory rates;\r\n        // reward for stage 0\r\n        if(_stage == 0){ \r\n            // amount of reward for Diamond,gold,silver,iron  token\r\n            // store as % *10 drop rates of Diamond,gold,silver,iron\r\n            amounts[0] = 0; // amount of reward for Diamond\r\n            amounts[1] = 1; // amount of reward for gold\r\n            amounts[2] = 2; // amount of reward for silver\r\n            amounts[3] = 5; // amount of reward for iron\r\n            rates[0] = 0;   // store as % *10 drop rates of Diamond\r\n            rates[1] = 10;  // store as % *10 drop rates of gold\r\n            rates[2] = 490; // store as % *10 drop rates of silver\r\n            rates[3] = 500; // store as % *10 drop rates of iron\r\n        }\r\n        // reward for stage 1\r\n        if(_stage == 1){\r\n            amounts[0] = 1;\r\n            amounts[1] = 10;\r\n            amounts[2] = 20;\r\n            amounts[3] = 50;\r\n            rates[0] = 5;\r\n            rates[1] = 145;\r\n            rates[2] = 450;\r\n            rates[3] = 400; \r\n        }\r\n        //reward for stage 2\r\n        if(_stage ==2){\r\n            amounts[0] = 1;\r\n            amounts[1] = 20;\r\n            amounts[2] = 100;\r\n            amounts[3] = 200;\r\n            rates[0] = 10;\r\n            rates[1] = 190;\r\n            rates[2] = 400;\r\n            rates[3] = 400;\r\n        }\r\n        // reward for stage 3 and beyond\r\n        if(_stage >2){\r\n            amounts[0] = 1;\r\n            amounts[1] = 50;\r\n            amounts[2] = 200;\r\n            amounts[3] = 100;\r\n            rates[0] = 50;\r\n            rates[1] = 250;\r\n            rates[2] = 350;\r\n            rates[3] = 350;\r\n        }\r\n        return(amounts,rates);\r\n    }\r\n    /**\r\n     * @param '_num' number that random generate to get reward\r\n     * @param '_time' number of time click to get stage\r\n     */\r\n    function rewardBasedOnStage(uint256 _num,uint _time) external returns(string memory){\r\n        uint256[] memory amount;\r\n        uint256[] memory rate;\r\n        // up stage first if meat condition\r\n        uint256 _stage = upStage(msg.sender,_time);\r\n        // get amount and rates of reward \r\n        // check getReward for futher infor\r\n        (amount,rate) = getReward(_stage);\r\n\r\n        string memory announce = reward(msg.sender,_num,amount,rate);\r\n        return announce;\r\n    }\r\n    function uint2str(uint256 _i) internal pure returns (string memory) {\r\n        if (_i == 0) {\r\n            return \"0\";\r\n        }\r\n        uint256 j = _i;\r\n        uint256 len;\r\n        while (j != 0) {\r\n            len++;\r\n            j /= 10;\r\n        }\r\n        bytes memory bstr = new bytes(len);\r\n        while (_i != 0) {\r\n            bstr[--len] = bytes1(uint8(48 + _i % 10));\r\n            _i /= 10;\r\n        }\r\n        return string(bstr);\r\n    }\r\n    function _mint(address _to, uint256 _id, uint256 _amount)\r\n    internal virtual{\r\n        // Add _amount\r\n        balance[_to][_id] += _amount;\r\n    }\r\n\r\n    function _burn(address _to, uint256 _id, uint256 _amount)\r\n    internal virtual{\r\n        // Add _amount\r\n        balance[_to][_id] -= _amount;\r\n    }\r\n\r\n    function balanceOf(address _user,uint256 _id)public view returns(uint256){\r\n        return balance[_user][_id];\r\n    }\r\n}",
  "sourcePath": "D:\\Work\\ERC-1155_example\\Banana_game_with_erc1155_token\\contracts\\bananaToken.sol",
  "compiler": {
    "name": "solc",
    "version": "0.8.17+commit.8df45f5f.Emscripten.clang"
  },
  "schemaVersion": "3.4.16",
  "updatedAt": "2024-12-05T04:00:14.418Z",
  "networkType": "ethereum",
  "devdoc": {
    "kind": "dev",
    "methods": {
      "rewardBasedOnStage(uint256,uint256)": {
        "params": {
          "": "'_time' number of time click to get stage"
        }
      }
    },
    "version": 1
  },
  "userdoc": {
    "kind": "user",
    "methods": {},
    "version": 1
  }
}